{
  "contractName": "ERC5192",
  "abi": [
    {
      "anonymous": false,
      "inputs": [
        {
          "indexed": false,
          "internalType": "uint256",
          "name": "tokenId",
          "type": "uint256"
        }
      ],
      "name": "Locked",
      "type": "event"
    },
    {
      "anonymous": false,
      "inputs": [
        {
          "indexed": false,
          "internalType": "uint256",
          "name": "tokenId",
          "type": "uint256"
        }
      ],
      "name": "Unlocked",
      "type": "event"
    },
    {
      "inputs": [
        {
          "internalType": "bytes4",
          "name": "interfaceId",
          "type": "bytes4"
        }
      ],
      "name": "supportsInterface",
      "outputs": [
        {
          "internalType": "bool",
          "name": "",
          "type": "bool"
        }
      ],
      "stateMutability": "pure",
      "type": "function"
    },
    {
      "inputs": [
        {
          "internalType": "uint256",
          "name": "tokenId",
          "type": "uint256"
        }
      ],
      "name": "locked",
      "outputs": [
        {
          "internalType": "bool",
          "name": "",
          "type": "bool"
        }
      ],
      "stateMutability": "view",
      "type": "function"
    }
  ],
  "bytecode": "0x608060405260016000806101000a81548160ff02191690831515021790555034801561002a57600080fd5b506102dc8061003a6000396000f3fe608060405234801561001057600080fd5b50600436106100365760003560e01c806301ffc9a71461003b578063b45a3c0e1461006b575b600080fd5b610055600480360381019061005091906101e0565b61009b565b6040516100629190610228565b60405180910390f35b61008560048036038101906100809190610279565b61016d565b6040516100929190610228565b60405180910390f35b60007f01ffc9a7000000000000000000000000000000000000000000000000000000007bffffffffffffffffffffffffffffffffffffffffffffffffffffffff1916827bffffffffffffffffffffffffffffffffffffffffffffffffffffffff1916148061016657507fb45a3c0e000000000000000000000000000000000000000000000000000000007bffffffffffffffffffffffffffffffffffffffffffffffffffffffff1916827bffffffffffffffffffffffffffffffffffffffffffffffffffffffff1916145b9050919050565b6000808054906101000a900460ff169050919050565b600080fd5b60007fffffffff0000000000000000000000000000000000000000000000000000000082169050919050565b6101bd81610188565b81146101c857600080fd5b50565b6000813590506101da816101b4565b92915050565b6000602082840312156101f6576101f5610183565b5b6000610204848285016101cb565b91505092915050565b60008115159050919050565b6102228161020d565b82525050565b600060208201905061023d6000830184610219565b92915050565b6000819050919050565b61025681610243565b811461026157600080fd5b50565b6000813590506102738161024d565b92915050565b60006020828403121561028f5761028e610183565b5b600061029d84828501610264565b9150509291505056fea2646970667358221220a555822199790bfa812d1b0aab076cf5724d1203da016bcf8a8864985e9f8ef864736f6c634300080f0033",
  "immutableReferences": {},
  "source": "// SPDX-License-Identifier: MIT\r\npragma solidity <=9.0.0;\r\nimport \"./IERC5192.sol\";\r\nimport \"@openzeppelin/contracts/utils/introspection/IERC165.sol\";\r\ncontract ERC5192 is IERC5192,IERC165 {\r\n  bool lock = true;\r\n  function supportsInterface(bytes4 interfaceId) external pure returns (bool){\r\n     return (interfaceId == type(IERC165).interfaceId || interfaceId == type(IERC5192).interfaceId);\r\n  }\r\n  function locked(uint256 tokenId) external view  returns (bool){\r\n    tokenId == tokenId;\r\n    return lock;\r\n  }\r\n}",
  "sourcePath": "D:\\NFT\\soliditytest\\contracts\\ERC5192.sol",
  "compiler": {
    "name": "solc",
    "version": "0.8.15+commit.e14f2714.Emscripten.clang"
  },
  "schemaVersion": "3.4.8",
  "updatedAt": "2023-02-27T13:08:59.967Z",
  "devdoc": {
    "kind": "dev",
    "methods": {
      "locked(uint256)": {
        "details": "SBTs assigned to zero address are considered invalid, and queries about them do throw.",
        "params": {
          "tokenId": "The identifier for an SBT."
        }
      },
      "supportsInterface(bytes4)": {
        "details": "Returns true if this contract implements the interface defined by `interfaceId`. See the corresponding https://eips.ethereum.org/EIPS/eip-165#how-interfaces-are-identified[EIP section] to learn more about how these ids are created. This function call must use less than 30 000 gas."
      }
    },
    "version": 1
  },
  "userdoc": {
    "events": {
      "Locked(uint256)": {
        "notice": "Emitted when the locking status is changed to locked."
      },
      "Unlocked(uint256)": {
        "notice": "Emitted when the locking status is changed to unlocked."
      }
    },
    "kind": "user",
    "methods": {
      "locked(uint256)": {
        "notice": "Returns the locking status of an Soulbound Token"
      }
    },
    "version": 1
  }
}