{
  "contractName": "ERC5192SBT",
  "abi": [
    {
      "inputs": [
        {
          "internalType": "string",
          "name": "_name",
          "type": "string"
        },
        {
          "internalType": "string",
          "name": "_symbol",
          "type": "string"
        }
      ],
      "stateMutability": "nonpayable",
      "type": "constructor"
    },
    {
      "anonymous": false,
      "inputs": [
        {
          "indexed": true,
          "internalType": "address",
          "name": "owner",
          "type": "address"
        },
        {
          "indexed": true,
          "internalType": "address",
          "name": "approved",
          "type": "address"
        },
        {
          "indexed": true,
          "internalType": "uint256",
          "name": "tokenId",
          "type": "uint256"
        }
      ],
      "name": "Approval",
      "type": "event"
    },
    {
      "anonymous": false,
      "inputs": [
        {
          "indexed": true,
          "internalType": "address",
          "name": "owner",
          "type": "address"
        },
        {
          "indexed": true,
          "internalType": "address",
          "name": "operator",
          "type": "address"
        },
        {
          "indexed": false,
          "internalType": "bool",
          "name": "approved",
          "type": "bool"
        }
      ],
      "name": "ApprovalForAll",
      "type": "event"
    },
    {
      "anonymous": false,
      "inputs": [
        {
          "indexed": false,
          "internalType": "uint256",
          "name": "tokenId",
          "type": "uint256"
        }
      ],
      "name": "Locked",
      "type": "event"
    },
    {
      "anonymous": false,
      "inputs": [
        {
          "indexed": true,
          "internalType": "address",
          "name": "from",
          "type": "address"
        },
        {
          "indexed": true,
          "internalType": "address",
          "name": "to",
          "type": "address"
        },
        {
          "indexed": true,
          "internalType": "uint256",
          "name": "tokenId",
          "type": "uint256"
        }
      ],
      "name": "Transfer",
      "type": "event"
    },
    {
      "anonymous": false,
      "inputs": [
        {
          "indexed": false,
          "internalType": "uint256",
          "name": "tokenId",
          "type": "uint256"
        }
      ],
      "name": "Unlocked",
      "type": "event"
    },
    {
      "inputs": [
        {
          "internalType": "address",
          "name": "to",
          "type": "address"
        },
        {
          "internalType": "uint256",
          "name": "tokenId",
          "type": "uint256"
        }
      ],
      "name": "approve",
      "outputs": [],
      "stateMutability": "nonpayable",
      "type": "function"
    },
    {
      "inputs": [
        {
          "internalType": "address",
          "name": "owner",
          "type": "address"
        }
      ],
      "name": "balanceOf",
      "outputs": [
        {
          "internalType": "uint256",
          "name": "",
          "type": "uint256"
        }
      ],
      "stateMutability": "view",
      "type": "function",
      "constant": true
    },
    {
      "inputs": [
        {
          "internalType": "uint256",
          "name": "tokenId",
          "type": "uint256"
        }
      ],
      "name": "getApproved",
      "outputs": [
        {
          "internalType": "address",
          "name": "",
          "type": "address"
        }
      ],
      "stateMutability": "view",
      "type": "function",
      "constant": true
    },
    {
      "inputs": [
        {
          "internalType": "address",
          "name": "owner",
          "type": "address"
        },
        {
          "internalType": "address",
          "name": "operator",
          "type": "address"
        }
      ],
      "name": "isApprovedForAll",
      "outputs": [
        {
          "internalType": "bool",
          "name": "",
          "type": "bool"
        }
      ],
      "stateMutability": "view",
      "type": "function",
      "constant": true
    },
    {
      "inputs": [
        {
          "internalType": "uint256",
          "name": "tokenId",
          "type": "uint256"
        }
      ],
      "name": "locked",
      "outputs": [
        {
          "internalType": "bool",
          "name": "",
          "type": "bool"
        }
      ],
      "stateMutability": "view",
      "type": "function",
      "constant": true
    },
    {
      "inputs": [],
      "name": "name",
      "outputs": [
        {
          "internalType": "string",
          "name": "",
          "type": "string"
        }
      ],
      "stateMutability": "view",
      "type": "function",
      "constant": true
    },
    {
      "inputs": [
        {
          "internalType": "uint256",
          "name": "tokenId",
          "type": "uint256"
        }
      ],
      "name": "ownerOf",
      "outputs": [
        {
          "internalType": "address",
          "name": "",
          "type": "address"
        }
      ],
      "stateMutability": "view",
      "type": "function",
      "constant": true
    },
    {
      "inputs": [
        {
          "internalType": "address",
          "name": "from",
          "type": "address"
        },
        {
          "internalType": "address",
          "name": "to",
          "type": "address"
        },
        {
          "internalType": "uint256",
          "name": "tokenId",
          "type": "uint256"
        }
      ],
      "name": "safeTransferFrom",
      "outputs": [],
      "stateMutability": "nonpayable",
      "type": "function"
    },
    {
      "inputs": [
        {
          "internalType": "address",
          "name": "from",
          "type": "address"
        },
        {
          "internalType": "address",
          "name": "to",
          "type": "address"
        },
        {
          "internalType": "uint256",
          "name": "tokenId",
          "type": "uint256"
        },
        {
          "internalType": "bytes",
          "name": "data",
          "type": "bytes"
        }
      ],
      "name": "safeTransferFrom",
      "outputs": [],
      "stateMutability": "nonpayable",
      "type": "function"
    },
    {
      "inputs": [
        {
          "internalType": "address",
          "name": "operator",
          "type": "address"
        },
        {
          "internalType": "bool",
          "name": "approved",
          "type": "bool"
        }
      ],
      "name": "setApprovalForAll",
      "outputs": [],
      "stateMutability": "nonpayable",
      "type": "function"
    },
    {
      "inputs": [
        {
          "internalType": "bytes4",
          "name": "interfaceId",
          "type": "bytes4"
        }
      ],
      "name": "supportsInterface",
      "outputs": [
        {
          "internalType": "bool",
          "name": "",
          "type": "bool"
        }
      ],
      "stateMutability": "view",
      "type": "function",
      "constant": true
    },
    {
      "inputs": [],
      "name": "symbol",
      "outputs": [
        {
          "internalType": "string",
          "name": "",
          "type": "string"
        }
      ],
      "stateMutability": "view",
      "type": "function",
      "constant": true
    },
    {
      "inputs": [
        {
          "internalType": "uint256",
          "name": "tokenId",
          "type": "uint256"
        }
      ],
      "name": "tokenURI",
      "outputs": [
        {
          "internalType": "string",
          "name": "",
          "type": "string"
        }
      ],
      "stateMutability": "view",
      "type": "function",
      "constant": true
    },
    {
      "inputs": [],
      "name": "totalSupply",
      "outputs": [
        {
          "internalType": "uint256",
          "name": "",
          "type": "uint256"
        }
      ],
      "stateMutability": "view",
      "type": "function",
      "constant": true
    },
    {
      "inputs": [
        {
          "internalType": "address",
          "name": "from",
          "type": "address"
        },
        {
          "internalType": "address",
          "name": "to",
          "type": "address"
        },
        {
          "internalType": "uint256",
          "name": "tokenId",
          "type": "uint256"
        }
      ],
      "name": "transferFrom",
      "outputs": [],
      "stateMutability": "nonpayable",
      "type": "function"
    },
    {
      "inputs": [],
      "name": "test1",
      "outputs": [
        {
          "internalType": "bytes4",
          "name": "",
          "type": "bytes4"
        }
      ],
      "stateMutability": "pure",
      "type": "function",
      "constant": true
    },
    {
      "inputs": [
        {
          "internalType": "bool",
          "name": "lock",
          "type": "bool"
        }
      ],
      "name": "mint",
      "outputs": [],
      "stateMutability": "nonpayable",
      "type": "function"
    }
  ],
  "bytecode": "0x6080604052610d056008553480156200001757600080fd5b506040516200311d3803806200311d83398181016040528101906200003d91906200020e565b818181818160009081620000529190620004de565b508060019081620000649190620004de565b50505050505050620005c5565b6000604051905090565b600080fd5b600080fd5b600080fd5b600080fd5b6000601f19601f8301169050919050565b7f4e487b7100000000000000000000000000000000000000000000000000000000600052604160045260246000fd5b620000da826200008f565b810181811067ffffffffffffffff82111715620000fc57620000fb620000a0565b5b80604052505050565b60006200011162000071565b90506200011f8282620000cf565b919050565b600067ffffffffffffffff821115620001425762000141620000a0565b5b6200014d826200008f565b9050602081019050919050565b60005b838110156200017a5780820151818401526020810190506200015d565b838111156200018a576000848401525b50505050565b6000620001a7620001a18462000124565b62000105565b905082815260208101848484011115620001c657620001c56200008a565b5b620001d38482856200015a565b509392505050565b600082601f830112620001f357620001f262000085565b5b81516200020584826020860162000190565b91505092915050565b600080604083850312156200022857620002276200007b565b5b600083015167ffffffffffffffff81111562000249576200024862000080565b5b6200025785828601620001db565b925050602083015167ffffffffffffffff8111156200027b576200027a62000080565b5b6200028985828601620001db565b9150509250929050565b600081519050919050565b7f4e487b7100000000000000000000000000000000000000000000000000000000600052602260045260246000fd5b60006002820490506001821680620002e657607f821691505b602082108103620002fc57620002fb6200029e565b5b50919050565b60008190508160005260206000209050919050565b60006020601f8301049050919050565b600082821b905092915050565b600060088302620003667fffffffffffffffffffffffffffffffffffffffffffffffffffffffffffffffff8262000327565b62000372868362000327565b95508019841693508086168417925050509392505050565b6000819050919050565b6000819050919050565b6000620003bf620003b9620003b3846200038a565b62000394565b6200038a565b9050919050565b6000819050919050565b620003db836200039e565b620003f3620003ea82620003c6565b84845462000334565b825550505050565b600090565b6200040a620003fb565b62000417818484620003d0565b505050565b5b818110156200043f576200043360008262000400565b6001810190506200041d565b5050565b601f8211156200048e57620004588162000302565b620004638462000317565b8101602085101562000473578190505b6200048b620004828562000317565b8301826200041c565b50505b505050565b600082821c905092915050565b6000620004b36000198460080262000493565b1980831691505092915050565b6000620004ce8383620004a0565b9150826002028217905092915050565b620004e98262000293565b67ffffffffffffffff811115620005055762000504620000a0565b5b620005118254620002cd565b6200051e82828562000443565b600060209050601f83116001811462000556576000841562000541578287015190505b6200054d8582620004c0565b865550620005bd565b601f198416620005668662000302565b60005b82811015620005905784890151825560018201915060208501945060208101905062000569565b86831015620005b05784890151620005ac601f891682620004a0565b8355505b6001600288020188555050505b505050505050565b612b4880620005d56000396000f3fe608060405234801561001057600080fd5b506004361061010b5760003560e01c80636352211e116100a2578063a22cb46511610071578063a22cb465146102b8578063b45a3c0e146102d4578063b88d4fde14610304578063c87b56dd14610320578063e985e9c5146103505761010b565b80636352211e1461021c5780636b59084d1461024c57806370a082311461026a57806395d89b411461029a5761010b565b806318160ddd116100de57806318160ddd146101aa57806318c41a80146101c857806323b872dd146101e457806342842e0e146102005761010b565b806301ffc9a71461011057806306fdde0314610140578063081812fc1461015e578063095ea7b31461018e575b600080fd5b61012a60048036038101906101259190611c53565b610380565b6040516101379190611c9b565b60405180910390f35b6101486103fa565b6040516101559190611d4f565b60405180910390f35b61017860048036038101906101739190611da7565b61048c565b6040516101859190611e15565b60405180910390f35b6101a860048036038101906101a39190611e5c565b6104d2565b005b6101b26105e9565b6040516101bf9190611eab565b60405180910390f35b6101e260048036038101906101dd9190611ef2565b6105ef565b005b6101fe60048036038101906101f99190611f1f565b610665565b005b61021a60048036038101906102159190611f1f565b6106d6565b005b61023660048036038101906102319190611da7565b610747565b6040516102439190611e15565b60405180910390f35b6102546107cd565b6040516102619190611f81565b60405180910390f35b610284600480360381019061027f9190611f9c565b6107f5565b6040516102919190611eab565b60405180910390f35b6102a26108ac565b6040516102af9190611d4f565b60405180910390f35b6102d260048036038101906102cd9190611fc9565b61093e565b005b6102ee60048036038101906102e99190611da7565b610954565b6040516102fb9190611c9b565b60405180910390f35b61031e6004803603810190610319919061213e565b61097e565b005b61033a60048036038101906103359190611da7565b6109f1565b6040516103479190611d4f565b60405180910390f35b61036a600480360381019061036591906121c1565b610a59565b6040516103779190611c9b565b60405180910390f35b60007fb45a3c0e000000000000000000000000000000000000000000000000000000007bffffffffffffffffffffffffffffffffffffffffffffffffffffffff1916827bffffffffffffffffffffffffffffffffffffffffffffffffffffffff191614806103f357506103f282610aed565b5b9050919050565b60606000805461040990612230565b80601f016020809104026020016040519081016040528092919081815260200182805461043590612230565b80156104825780601f1061045757610100808354040283529160200191610482565b820191906000526020600020905b81548152906001019060200180831161046557829003601f168201915b5050505050905090565b600061049782610bcf565b6004600083815260200190815260200160002060009054906101000a900473ffffffffffffffffffffffffffffffffffffffff169050919050565b60006104dd82610747565b90508073ffffffffffffffffffffffffffffffffffffffff168373ffffffffffffffffffffffffffffffffffffffff160361054d576040517f08c379a0000000000000000000000000000000000000000000000000000000008152600401610544906122d3565b60405180910390fd5b8073ffffffffffffffffffffffffffffffffffffffff1661056c610c1a565b73ffffffffffffffffffffffffffffffffffffffff16148061059b575061059a81610595610c1a565b610a59565b5b6105da576040517f08c379a00000000000000000000000000000000000000000000000000000000081526004016105d190612365565b60405180910390fd5b6105e48383610c22565b505050565b60085481565b6105f96007610cdb565b60006106056007610cf1565b905060085481111561064c576040517f08c379a0000000000000000000000000000000000000000000000000000000008152600401610643906123d1565b60405180910390fd5b6106563382610cff565b6106608183610f1c565b505050565b6006600082815260200190815260200160002060009054906101000a900460ff16156106c6576040517f08c379a00000000000000000000000000000000000000000000000000000000081526004016106bd9061243d565b60405180910390fd5b6106d1838383610fb9565b505050565b6006600082815260200190815260200160002060009054906101000a900460ff1615610737576040517f08c379a000000000000000000000000000000000000000000000000000000000815260040161072e9061243d565b60405180910390fd5b610742838383611019565b505050565b60008061075383611039565b9050600073ffffffffffffffffffffffffffffffffffffffff168173ffffffffffffffffffffffffffffffffffffffff16036107c4576040517f08c379a00000000000000000000000000000000000000000000000000000000081526004016107bb906124a9565b60405180910390fd5b80915050919050565b60007f01ffc9a7a5cef8baa21ed3c5c0d7e23accb804b619e9333b597f47a0d84076e2905090565b60008073ffffffffffffffffffffffffffffffffffffffff168273ffffffffffffffffffffffffffffffffffffffff1603610865576040517f08c379a000000000000000000000000000000000000000000000000000000000815260040161085c9061253b565b60405180910390fd5b600360008373ffffffffffffffffffffffffffffffffffffffff1673ffffffffffffffffffffffffffffffffffffffff168152602001908152602001600020549050919050565b6060600180546108bb90612230565b80601f01602080910402602001604051908101604052809291908181526020018280546108e790612230565b80156109345780601f1061090957610100808354040283529160200191610934565b820191906000526020600020905b81548152906001019060200180831161091757829003601f168201915b5050505050905090565b610950610949610c1a565b8383611076565b5050565b60006006600083815260200190815260200160002060009054906101000a900460ff169050919050565b6006600083815260200190815260200160002060009054906101000a900460ff16156109df576040517f08c379a00000000000000000000000000000000000000000000000000000000081526004016109d69061243d565b60405180910390fd5b6109eb848484846111e2565b50505050565b60606109fc82610bcf565b6000610a06611244565b90506000815111610a265760405180602001604052806000815250610a51565b80610a308461125b565b604051602001610a41929190612597565b6040516020818303038152906040525b915050919050565b6000600560008473ffffffffffffffffffffffffffffffffffffffff1673ffffffffffffffffffffffffffffffffffffffff16815260200190815260200160002060008373ffffffffffffffffffffffffffffffffffffffff1673ffffffffffffffffffffffffffffffffffffffff16815260200190815260200160002060009054906101000a900460ff16905092915050565b60007f80ac58cd000000000000000000000000000000000000000000000000000000007bffffffffffffffffffffffffffffffffffffffffffffffffffffffff1916827bffffffffffffffffffffffffffffffffffffffffffffffffffffffff19161480610bb857507f5b5e139f000000000000000000000000000000000000000000000000000000007bffffffffffffffffffffffffffffffffffffffffffffffffffffffff1916827bffffffffffffffffffffffffffffffffffffffffffffffffffffffff1916145b80610bc85750610bc782611329565b5b9050919050565b610bd881611393565b610c17576040517f08c379a0000000000000000000000000000000000000000000000000000000008152600401610c0e906124a9565b60405180910390fd5b50565b600033905090565b816004600083815260200190815260200160002060006101000a81548173ffffffffffffffffffffffffffffffffffffffff021916908373ffffffffffffffffffffffffffffffffffffffff160217905550808273ffffffffffffffffffffffffffffffffffffffff16610c9583610747565b73ffffffffffffffffffffffffffffffffffffffff167f8c5be1e5ebec7d5bd14f71427d1e84f3dd0314c0f7b2291e5b200ac8c7c3b92560405160405180910390a45050565b6001816000016000828254019250508190555050565b600081600001549050919050565b600073ffffffffffffffffffffffffffffffffffffffff168273ffffffffffffffffffffffffffffffffffffffff1603610d6e576040517f08c379a0000000000000000000000000000000000000000000000000000000008152600401610d6590612607565b60405180910390fd5b610d7781611393565b15610db7576040517f08c379a0000000000000000000000000000000000000000000000000000000008152600401610dae90612673565b60405180910390fd5b610dc56000838360016113d4565b610dce81611393565b15610e0e576040517f08c379a0000000000000000000000000000000000000000000000000000000008152600401610e0590612673565b60405180910390fd5b6001600360008473ffffffffffffffffffffffffffffffffffffffff1673ffffffffffffffffffffffffffffffffffffffff16815260200190815260200160002060008282540192505081905550816002600083815260200190815260200160002060006101000a81548173ffffffffffffffffffffffffffffffffffffffff021916908373ffffffffffffffffffffffffffffffffffffffff160217905550808273ffffffffffffffffffffffffffffffffffffffff16600073ffffffffffffffffffffffffffffffffffffffff167fddf252ad1be2c89b69c2b068fc378daa952ba7f163c4a11628f55a4df523b3ef60405160405180910390a4610f186000838360016114fa565b5050565b60008115610f5c577f032bc66be43dbccb7487781d168eb7bda224628a3b2c3388bdf69b532a3a161183604051610f539190611eab565b60405180910390a15b816006600085815260200190815260200160002060006101000a81548160ff021916908315150217905550816006600085815260200190815260200160002060006101000a81548160ff0219169083151502179055905092915050565b610fca610fc4610c1a565b82611500565b611009576040517f08c379a000000000000000000000000000000000000000000000000000000000815260040161100090612705565b60405180910390fd5b611014838383611595565b505050565b6110348383836040518060200160405280600081525061097e565b505050565b60006002600083815260200190815260200160002060009054906101000a900473ffffffffffffffffffffffffffffffffffffffff169050919050565b8173ffffffffffffffffffffffffffffffffffffffff168373ffffffffffffffffffffffffffffffffffffffff16036110e4576040517f08c379a00000000000000000000000000000000000000000000000000000000081526004016110db90612771565b60405180910390fd5b80600560008573ffffffffffffffffffffffffffffffffffffffff1673ffffffffffffffffffffffffffffffffffffffff16815260200190815260200160002060008473ffffffffffffffffffffffffffffffffffffffff1673ffffffffffffffffffffffffffffffffffffffff16815260200190815260200160002060006101000a81548160ff0219169083151502179055508173ffffffffffffffffffffffffffffffffffffffff168373ffffffffffffffffffffffffffffffffffffffff167f17307eab39ab6107e8899845ad3d59bd9653f200f220920489ca2b5937696c31836040516111d59190611c9b565b60405180910390a3505050565b6111f36111ed610c1a565b83611500565b611232576040517f08c379a000000000000000000000000000000000000000000000000000000000815260040161122990612705565b60405180910390fd5b61123e8484848461188e565b50505050565b606060405180602001604052806000815250905090565b60606000600161126a846118ea565b01905060008167ffffffffffffffff81111561128957611288612013565b5b6040519080825280601f01601f1916602001820160405280156112bb5781602001600182028036833780820191505090505b509050600082602001820190505b60011561131e578080600190039150507f3031323334353637383961626364656600000000000000000000000000000000600a86061a8153600a858161131257611311612791565b5b049450600085036112c9575b819350505050919050565b60007f01ffc9a7000000000000000000000000000000000000000000000000000000007bffffffffffffffffffffffffffffffffffffffffffffffffffffffff1916827bffffffffffffffffffffffffffffffffffffffffffffffffffffffff1916149050919050565b60008073ffffffffffffffffffffffffffffffffffffffff166113b583611039565b73ffffffffffffffffffffffffffffffffffffffff1614159050919050565b60018111156114f457600073ffffffffffffffffffffffffffffffffffffffff168473ffffffffffffffffffffffffffffffffffffffff16146114685780600360008673ffffffffffffffffffffffffffffffffffffffff1673ffffffffffffffffffffffffffffffffffffffff168152602001908152602001600020600082825461146091906127ef565b925050819055505b600073ffffffffffffffffffffffffffffffffffffffff168373ffffffffffffffffffffffffffffffffffffffff16146114f35780600360008573ffffffffffffffffffffffffffffffffffffffff1673ffffffffffffffffffffffffffffffffffffffff16815260200190815260200160002060008282546114eb9190612823565b925050819055505b5b50505050565b50505050565b60008061150c83610747565b90508073ffffffffffffffffffffffffffffffffffffffff168473ffffffffffffffffffffffffffffffffffffffff16148061154e575061154d8185610a59565b5b8061158c57508373ffffffffffffffffffffffffffffffffffffffff166115748461048c565b73ffffffffffffffffffffffffffffffffffffffff16145b91505092915050565b8273ffffffffffffffffffffffffffffffffffffffff166115b582610747565b73ffffffffffffffffffffffffffffffffffffffff161461160b576040517f08c379a0000000000000000000000000000000000000000000000000000000008152600401611602906128eb565b60405180910390fd5b600073ffffffffffffffffffffffffffffffffffffffff168273ffffffffffffffffffffffffffffffffffffffff160361167a576040517f08c379a00000000000000000000000000000000000000000000000000000000081526004016116719061297d565b60405180910390fd5b61168783838360016113d4565b8273ffffffffffffffffffffffffffffffffffffffff166116a782610747565b73ffffffffffffffffffffffffffffffffffffffff16146116fd576040517f08c379a00000000000000000000000000000000000000000000000000000000081526004016116f4906128eb565b60405180910390fd5b6004600082815260200190815260200160002060006101000a81549073ffffffffffffffffffffffffffffffffffffffff02191690556001600360008573ffffffffffffffffffffffffffffffffffffffff1673ffffffffffffffffffffffffffffffffffffffff168152602001908152602001600020600082825403925050819055506001600360008473ffffffffffffffffffffffffffffffffffffffff1673ffffffffffffffffffffffffffffffffffffffff16815260200190815260200160002060008282540192505081905550816002600083815260200190815260200160002060006101000a81548173ffffffffffffffffffffffffffffffffffffffff021916908373ffffffffffffffffffffffffffffffffffffffff160217905550808273ffffffffffffffffffffffffffffffffffffffff168473ffffffffffffffffffffffffffffffffffffffff167fddf252ad1be2c89b69c2b068fc378daa952ba7f163c4a11628f55a4df523b3ef60405160405180910390a461188983838360016114fa565b505050565b611899848484611595565b6118a584848484611a3d565b6118e4576040517f08c379a00000000000000000000000000000000000000000000000000000000081526004016118db90612a0f565b60405180910390fd5b50505050565b600080600090507a184f03e93ff9f4daa797ed6e38ed64bf6a1f0100000000000000008310611948577a184f03e93ff9f4daa797ed6e38ed64bf6a1f010000000000000000838161193e5761193d612791565b5b0492506040810190505b6d04ee2d6d415b85acef81000000008310611985576d04ee2d6d415b85acef8100000000838161197b5761197a612791565b5b0492506020810190505b662386f26fc1000083106119b457662386f26fc1000083816119aa576119a9612791565b5b0492506010810190505b6305f5e10083106119dd576305f5e10083816119d3576119d2612791565b5b0492506008810190505b6127108310611a025761271083816119f8576119f7612791565b5b0492506004810190505b60648310611a255760648381611a1b57611a1a612791565b5b0492506002810190505b600a8310611a34576001810190505b80915050919050565b6000611a5e8473ffffffffffffffffffffffffffffffffffffffff16611bc4565b15611bb7578373ffffffffffffffffffffffffffffffffffffffff1663150b7a02611a87610c1a565b8786866040518563ffffffff1660e01b8152600401611aa99493929190612a84565b6020604051808303816000875af1925050508015611ae557506040513d601f19601f82011682018060405250810190611ae29190612ae5565b60015b611b67573d8060008114611b15576040519150601f19603f3d011682016040523d82523d6000602084013e611b1a565b606091505b506000815103611b5f576040517f08c379a0000000000000000000000000000000000000000000000000000000008152600401611b5690612a0f565b60405180910390fd5b805181602001fd5b63150b7a0260e01b7bffffffffffffffffffffffffffffffffffffffffffffffffffffffff1916817bffffffffffffffffffffffffffffffffffffffffffffffffffffffff191614915050611bbc565b600190505b949350505050565b6000808273ffffffffffffffffffffffffffffffffffffffff163b119050919050565b6000604051905090565b600080fd5b600080fd5b60007fffffffff0000000000000000000000000000000000000000000000000000000082169050919050565b611c3081611bfb565b8114611c3b57600080fd5b50565b600081359050611c4d81611c27565b92915050565b600060208284031215611c6957611c68611bf1565b5b6000611c7784828501611c3e565b91505092915050565b60008115159050919050565b611c9581611c80565b82525050565b6000602082019050611cb06000830184611c8c565b92915050565b600081519050919050565b600082825260208201905092915050565b60005b83811015611cf0578082015181840152602081019050611cd5565b83811115611cff576000848401525b50505050565b6000601f19601f8301169050919050565b6000611d2182611cb6565b611d2b8185611cc1565b9350611d3b818560208601611cd2565b611d4481611d05565b840191505092915050565b60006020820190508181036000830152611d698184611d16565b905092915050565b6000819050919050565b611d8481611d71565b8114611d8f57600080fd5b50565b600081359050611da181611d7b565b92915050565b600060208284031215611dbd57611dbc611bf1565b5b6000611dcb84828501611d92565b91505092915050565b600073ffffffffffffffffffffffffffffffffffffffff82169050919050565b6000611dff82611dd4565b9050919050565b611e0f81611df4565b82525050565b6000602082019050611e2a6000830184611e06565b92915050565b611e3981611df4565b8114611e4457600080fd5b50565b600081359050611e5681611e30565b92915050565b60008060408385031215611e7357611e72611bf1565b5b6000611e8185828601611e47565b9250506020611e9285828601611d92565b9150509250929050565b611ea581611d71565b82525050565b6000602082019050611ec06000830184611e9c565b92915050565b611ecf81611c80565b8114611eda57600080fd5b50565b600081359050611eec81611ec6565b92915050565b600060208284031215611f0857611f07611bf1565b5b6000611f1684828501611edd565b91505092915050565b600080600060608486031215611f3857611f37611bf1565b5b6000611f4686828701611e47565b9350506020611f5786828701611e47565b9250506040611f6886828701611d92565b9150509250925092565b611f7b81611bfb565b82525050565b6000602082019050611f966000830184611f72565b92915050565b600060208284031215611fb257611fb1611bf1565b5b6000611fc084828501611e47565b91505092915050565b60008060408385031215611fe057611fdf611bf1565b5b6000611fee85828601611e47565b9250506020611fff85828601611edd565b9150509250929050565b600080fd5b600080fd5b7f4e487b7100000000000000000000000000000000000000000000000000000000600052604160045260246000fd5b61204b82611d05565b810181811067ffffffffffffffff8211171561206a57612069612013565b5b80604052505050565b600061207d611be7565b90506120898282612042565b919050565b600067ffffffffffffffff8211156120a9576120a8612013565b5b6120b282611d05565b9050602081019050919050565b82818337600083830152505050565b60006120e16120dc8461208e565b612073565b9050828152602081018484840111156120fd576120fc61200e565b5b6121088482856120bf565b509392505050565b600082601f83011261212557612124612009565b5b81356121358482602086016120ce565b91505092915050565b6000806000806080858703121561215857612157611bf1565b5b600061216687828801611e47565b945050602061217787828801611e47565b935050604061218887828801611d92565b925050606085013567ffffffffffffffff8111156121a9576121a8611bf6565b5b6121b587828801612110565b91505092959194509250565b600080604083850312156121d8576121d7611bf1565b5b60006121e685828601611e47565b92505060206121f785828601611e47565b9150509250929050565b7f4e487b7100000000000000000000000000000000000000000000000000000000600052602260045260246000fd5b6000600282049050600182168061224857607f821691505b60208210810361225b5761225a612201565b5b50919050565b7f4552433732313a20617070726f76616c20746f2063757272656e74206f776e6560008201527f7200000000000000000000000000000000000000000000000000000000000000602082015250565b60006122bd602183611cc1565b91506122c882612261565b604082019050919050565b600060208201905081810360008301526122ec816122b0565b9050919050565b7f4552433732313a20617070726f76652063616c6c6572206973206e6f7420746f60008201527f6b656e206f776e6572206f7220617070726f76656420666f7220616c6c000000602082015250565b600061234f603d83611cc1565b915061235a826122f3565b604082019050919050565b6000602082019050818103600083015261237e81612342565b9050919050565b7f4e465420537570706c792046756c6c0000000000000000000000000000000000600082015250565b60006123bb600f83611cc1565b91506123c682612385565b602082019050919050565b600060208201905081810360008301526123ea816123ae565b9050919050565b7f4c6f636b65640000000000000000000000000000000000000000000000000000600082015250565b6000612427600683611cc1565b9150612432826123f1565b602082019050919050565b600060208201905081810360008301526124568161241a565b9050919050565b7f4552433732313a20696e76616c696420746f6b656e2049440000000000000000600082015250565b6000612493601883611cc1565b915061249e8261245d565b602082019050919050565b600060208201905081810360008301526124c281612486565b9050919050565b7f4552433732313a2061646472657373207a65726f206973206e6f74206120766160008201527f6c6964206f776e65720000000000000000000000000000000000000000000000602082015250565b6000612525602983611cc1565b9150612530826124c9565b604082019050919050565b6000602082019050818103600083015261255481612518565b9050919050565b600081905092915050565b600061257182611cb6565b61257b818561255b565b935061258b818560208601611cd2565b80840191505092915050565b60006125a38285612566565b91506125af8284612566565b91508190509392505050565b7f4552433732313a206d696e7420746f20746865207a65726f2061646472657373600082015250565b60006125f1602083611cc1565b91506125fc826125bb565b602082019050919050565b60006020820190508181036000830152612620816125e4565b9050919050565b7f4552433732313a20746f6b656e20616c7265616479206d696e74656400000000600082015250565b600061265d601c83611cc1565b915061266882612627565b602082019050919050565b6000602082019050818103600083015261268c81612650565b9050919050565b7f4552433732313a2063616c6c6572206973206e6f7420746f6b656e206f776e6560008201527f72206f7220617070726f76656400000000000000000000000000000000000000602082015250565b60006126ef602d83611cc1565b91506126fa82612693565b604082019050919050565b6000602082019050818103600083015261271e816126e2565b9050919050565b7f4552433732313a20617070726f766520746f2063616c6c657200000000000000600082015250565b600061275b601983611cc1565b915061276682612725565b602082019050919050565b6000602082019050818103600083015261278a8161274e565b9050919050565b7f4e487b7100000000000000000000000000000000000000000000000000000000600052601260045260246000fd5b7f4e487b7100000000000000000000000000000000000000000000000000000000600052601160045260246000fd5b60006127fa82611d71565b915061280583611d71565b925082821015612818576128176127c0565b5b828203905092915050565b600061282e82611d71565b915061283983611d71565b9250827fffffffffffffffffffffffffffffffffffffffffffffffffffffffffffffffff0382111561286e5761286d6127c0565b5b828201905092915050565b7f4552433732313a207472616e736665722066726f6d20696e636f72726563742060008201527f6f776e6572000000000000000000000000000000000000000000000000000000602082015250565b60006128d5602583611cc1565b91506128e082612879565b604082019050919050565b60006020820190508181036000830152612904816128c8565b9050919050565b7f4552433732313a207472616e7366657220746f20746865207a65726f2061646460008201527f7265737300000000000000000000000000000000000000000000000000000000602082015250565b6000612967602483611cc1565b91506129728261290b565b604082019050919050565b600060208201905081810360008301526129968161295a565b9050919050565b7f4552433732313a207472616e7366657220746f206e6f6e20455243373231526560008201527f63656976657220696d706c656d656e7465720000000000000000000000000000602082015250565b60006129f9603283611cc1565b9150612a048261299d565b604082019050919050565b60006020820190508181036000830152612a28816129ec565b9050919050565b600081519050919050565b600082825260208201905092915050565b6000612a5682612a2f565b612a608185612a3a565b9350612a70818560208601611cd2565b612a7981611d05565b840191505092915050565b6000608082019050612a996000830187611e06565b612aa66020830186611e06565b612ab36040830185611e9c565b8181036060830152612ac58184612a4b565b905095945050505050565b600081519050612adf81611c27565b92915050565b600060208284031215612afb57612afa611bf1565b5b6000612b0984828501612ad0565b9150509291505056fea264697066735822122098cc45c1772ebeb28da177aefa451508ac671747b45a625840d53b26b06c5b8164736f6c634300080f0033",
  "immutableReferences": {},
  "source": "// SPDX-License-Identifier: MIT\r\npragma solidity <=9.0.0;\r\nimport \"@openzeppelin/contracts/utils/introspection/ERC165.sol\";\r\nimport \"@openzeppelin/contracts/token/ERC721/ERC721.sol\";\r\nimport \"@openzeppelin/contracts/utils/Counters.sol\";\r\nimport \"./ERC5192.sol\";\r\ncontract ERC5192SBT is ERC5192 {\r\n  using Counters for Counters.Counter;\r\n  Counters.Counter private _tokenIds;\r\n  uint256 public totalSupply = 3333;\r\n\r\n  constructor(string memory _name,string memory _symbol) ERC5192(_name,_symbol){\r\n\r\n  }\r\n  function test1() pure public returns(bytes4){\r\n    return (bytes4(keccak256('supportsInterface(bytes4)')));\r\n  }\r\n   function mint(bool lock) public{\r\n    \r\n    _tokenIds.increment();\r\n    uint256 tokenId=_tokenIds.current();\r\n    require(tokenId <= totalSupply, \"NFT Supply Full\");\r\n    _mint(msg.sender, tokenId);\r\n    setTokenIdLock(tokenId,lock);\r\n    \r\n  }\r\n}",
  "sourcePath": "D:\\NFT\\soliditytest\\contracts\\ERC5192SBT.sol",
  "compiler": {
    "name": "solc",
    "version": "0.8.15+commit.e14f2714.Emscripten.clang"
  },
  "schemaVersion": "3.4.8",
  "updatedAt": "2023-02-28T15:11:11.038Z",
  "networkType": "ethereum",
  "devdoc": {
    "kind": "dev",
    "methods": {
      "approve(address,uint256)": {
        "details": "See {IERC721-approve}."
      },
      "balanceOf(address)": {
        "details": "See {IERC721-balanceOf}."
      },
      "getApproved(uint256)": {
        "details": "See {IERC721-getApproved}."
      },
      "isApprovedForAll(address,address)": {
        "details": "See {IERC721-isApprovedForAll}."
      },
      "locked(uint256)": {
        "details": "SBTs assigned to zero address are considered invalid, and queries about them do throw.",
        "params": {
          "tokenId": "The identifier for an SBT."
        }
      },
      "name()": {
        "details": "See {IERC721Metadata-name}."
      },
      "ownerOf(uint256)": {
        "details": "See {IERC721-ownerOf}."
      },
      "safeTransferFrom(address,address,uint256)": {
        "details": "See {IERC721-safeTransferFrom}."
      },
      "safeTransferFrom(address,address,uint256,bytes)": {
        "details": "See {IERC721-safeTransferFrom}."
      },
      "setApprovalForAll(address,bool)": {
        "details": "See {IERC721-setApprovalForAll}."
      },
      "supportsInterface(bytes4)": {
        "details": "See {IERC165-supportsInterface}."
      },
      "symbol()": {
        "details": "See {IERC721Metadata-symbol}."
      },
      "tokenURI(uint256)": {
        "details": "See {IERC721Metadata-tokenURI}."
      },
      "transferFrom(address,address,uint256)": {
        "details": "See {IERC721-transferFrom}."
      }
    },
    "version": 1
  },
  "userdoc": {
    "events": {
      "Locked(uint256)": {
        "notice": "Emitted when the locking status is changed to locked."
      },
      "Unlocked(uint256)": {
        "notice": "Emitted when the locking status is changed to unlocked."
      }
    },
    "kind": "user",
    "methods": {
      "locked(uint256)": {
        "notice": "Returns the locking status of an Soulbound Token"
      }
    },
    "version": 1
  }
}